{
  "contractName": "funds",
  "abi": [
    {
      "inputs": [
        {
          "internalType": "uint256",
          "name": "dept",
          "type": "uint256"
        },
        {
          "internalType": "address",
          "name": "sender",
          "type": "address"
        },
        {
          "internalType": "address",
          "name": "receiver",
          "type": "address"
        },
        {
          "internalType": "uint256",
          "name": "amount",
          "type": "uint256"
        }
      ],
      "name": "createfund",
      "outputs": [],
      "stateMutability": "nonpayable",
      "type": "function"
    },
    {
      "inputs": [],
      "name": "viewfunds",
      "outputs": [
        {
          "internalType": "address[]",
          "name": "",
          "type": "address[]"
        },
        {
          "internalType": "address[]",
          "name": "",
          "type": "address[]"
        },
        {
          "internalType": "uint256[]",
          "name": "",
          "type": "uint256[]"
        }
      ],
      "stateMutability": "view",
      "type": "function",
      "constant": true
    },
    {
      "inputs": [],
      "name": "viewAllocatedFunds",
      "outputs": [
        {
          "internalType": "uint256[10]",
          "name": "",
          "type": "uint256[10]"
        }
      ],
      "stateMutability": "view",
      "type": "function",
      "constant": true
    },
    {
      "inputs": [
        {
          "internalType": "uint256",
          "name": "dept",
          "type": "uint256"
        },
        {
          "internalType": "uint256",
          "name": "newfund",
          "type": "uint256"
        }
      ],
      "name": "addFund",
      "outputs": [],
      "stateMutability": "nonpayable",
      "type": "function"
    }
  ],
  "bytecode": "0x6080604052604051806101400160405280620f424062ffffff168152602001620f424062ffffff168152602001620f424062ffffff168152602001620f424062ffffff168152602001620f424062ffffff168152602001620f424062ffffff168152602001620f424062ffffff168152602001620f424062ffffff168152602001620f424062ffffff168152602001620f424062ffffff16815250600390600a6100aa9291906100bd565b503480156100b757600080fd5b50610121565b82600a81019282156100f3579160200282015b828111156100f2578251829062ffffff169055916020019190600101906100d0565b5b5090506101009190610104565b5090565b5b8082111561011d576000816000905550600101610105565b5090565b6108bf806101306000396000f3fe608060405234801561001057600080fd5b506004361061004c5760003560e01c80633d696e4f1461005157806358a781991461006f578063a59d23571461008f578063d8ba83d5146100ab575b600080fd5b6100596100c7565b60405161006691906104d0565b60405180910390f35b610077610112565b60405161008693929190610673565b60405180910390f35b6100a960048036038101906100a4919061071c565b61028a565b005b6100c560048036038101906100c09190610783565b6103c8565b005b6100cf6103f8565b6003600a806020026040519081016040528092919082600a8015610108576020028201915b8154815260200190600101908083116100f4575b5050505050905090565b60608060606000600160028280548060200260200160405190810160405280929190818152602001828054801561019e57602002820191906000526020600020905b8160009054906101000a900473ffffffffffffffffffffffffffffffffffffffff1673ffffffffffffffffffffffffffffffffffffffff1681526020019060010190808311610154575b505050505092508180548060200260200160405190810160405280929190818152602001828054801561022657602002820191906000526020600020905b8160009054906101000a900473ffffffffffffffffffffffffffffffffffffffff1673ffffffffffffffffffffffffffffffffffffffff16815260200190600101908083116101dc575b505050505091508080548060200260200160405190810160405280929190818152602001828054801561027857602002820191906000526020600020905b815481526020019060010190808311610264575b50505050509050925092509250909192565b80600385600a811061029f5761029e6107c3565b5b0154106103c2576000839080600181540180825580915050600190039060005260206000200160009091909190916101000a81548173ffffffffffffffffffffffffffffffffffffffff021916908373ffffffffffffffffffffffffffffffffffffffff1602179055506001829080600181540180825580915050600190039060005260206000200160009091909190916101000a81548173ffffffffffffffffffffffffffffffffffffffff021916908373ffffffffffffffffffffffffffffffffffffffff16021790555080600385600a8110610381576103806107c3565b5b0160008282546103919190610821565b9250508190555060028190806001815401808255809150506001900390600052602060002001600090919091909150555b50505050565b80600383600a81106103dd576103dc6107c3565b5b0160008282546103ed9190610855565b925050819055505050565b604051806101400160405280600a90602082028036833780820191505090505090565b6000600a9050919050565b600081905092915050565b6000819050919050565b6000819050919050565b61044e8161043b565b82525050565b60006104608383610445565b60208301905092915050565b6000602082019050919050565b6104828161041b565b61048c8184610426565b925061049782610431565b8060005b838110156104c85781516104af8782610454565b96506104ba8361046c565b92505060018101905061049b565b505050505050565b6000610140820190506104e66000830184610479565b92915050565b600081519050919050565b600082825260208201905092915050565b6000819050602082019050919050565b600073ffffffffffffffffffffffffffffffffffffffff82169050919050565b600061054382610518565b9050919050565b61055381610538565b82525050565b6000610565838361054a565b60208301905092915050565b6000602082019050919050565b6000610589826104ec565b61059381856104f7565b935061059e83610508565b8060005b838110156105cf5781516105b68882610559565b97506105c183610571565b9250506001810190506105a2565b5085935050505092915050565b600081519050919050565b600082825260208201905092915050565b6000819050602082019050919050565b6000602082019050919050565b6000610620826105dc565b61062a81856105e7565b9350610635836105f8565b8060005b8381101561066657815161064d8882610454565b975061065883610608565b925050600181019050610639565b5085935050505092915050565b6000606082019050818103600083015261068d818661057e565b905081810360208301526106a1818561057e565b905081810360408301526106b58184610615565b9050949350505050565b600080fd5b6106cd8161043b565b81146106d857600080fd5b50565b6000813590506106ea816106c4565b92915050565b6106f981610538565b811461070457600080fd5b50565b600081359050610716816106f0565b92915050565b60008060008060808587031215610736576107356106bf565b5b6000610744878288016106db565b945050602061075587828801610707565b935050604061076687828801610707565b9250506060610777878288016106db565b91505092959194509250565b6000806040838503121561079a576107996106bf565b5b60006107a8858286016106db565b92505060206107b9858286016106db565b9150509250929050565b7f4e487b7100000000000000000000000000000000000000000000000000000000600052603260045260246000fd5b7f4e487b7100000000000000000000000000000000000000000000000000000000600052601160045260246000fd5b600061082c8261043b565b91506108378361043b565b925082820390508181111561084f5761084e6107f2565b5b92915050565b60006108608261043b565b915061086b8361043b565b9250828201905080821115610883576108826107f2565b5b9291505056fea2646970667358221220e4b980c99ede1a3ccb44f22bf51b21c390df7a9d81db1771166d3475506527f264736f6c63430008110033",
  "immutableReferences": {},
  "source": "// SPDX-License-Identifier: MIT\r\npragma solidity >=0.4.22 <0.9.0;\r\n\r\ncontract funds {\r\n\r\n  address[] _senders;\r\n  address[] _receivers;\r\n  uint[] _amounts;\r\n\r\n  uint[10] _depts=[1000000,1000000,1000000,1000000,1000000,1000000,1000000,1000000,1000000,1000000];\r\n  // Finance,Expenditure,Revenue,Education,Health,Power,Investment,Public Enterprise,Technology,Transportation;\r\n\r\n  function createfund(uint dept,address sender,address receiver,uint amount) public{\r\n\r\n    if(_depts[dept]>=amount) {\r\n      _senders.push(sender);\r\n      _receivers.push(receiver);\r\n      _depts[dept]-=amount;\r\n      _amounts.push(amount);\r\n    }\r\n  }\r\n\r\n  function viewfunds() public view returns(address[] memory,address[] memory,uint[] memory){\r\n    return(_senders,_receivers,_amounts);\r\n  }\r\n\r\n  function viewAllocatedFunds() public view returns(uint[10] memory) {\r\n    return(_depts);\r\n  }\r\n\r\n  function addFund(uint dept,uint newfund) public {\r\n    _depts[dept]+=newfund;\r\n  }\r\n}\r\n",
  "sourcePath": "C:\\Users\\91901\\Desktop\\Government fund allocation and Tracking system over blockchain\\contracts\\funds.sol",
  "compiler": {
    "name": "solc",
    "version": "0.8.17+commit.8df45f5f.Emscripten.clang"
  },
  "schemaVersion": "3.4.11",
  "updatedAt": "2023-02-18T14:25:31.192Z",
  "networkType": "ethereum",
  "devdoc": {
    "kind": "dev",
    "methods": {},
    "version": 1
  },
  "userdoc": {
    "kind": "user",
    "methods": {},
    "version": 1
  }
}