{
  "contractName": "funds",
  "abi": [
    {
      "inputs": [
        {
          "internalType": "uint256",
          "name": "id",
          "type": "uint256"
        },
        {
          "internalType": "string",
          "name": "question",
          "type": "string"
        }
      ],
      "name": "addQuestion",
      "outputs": [],
      "stateMutability": "nonpayable",
      "type": "function"
    },
    {
      "inputs": [],
      "name": "viewQuestions",
      "outputs": [
        {
          "internalType": "uint256[]",
          "name": "",
          "type": "uint256[]"
        },
        {
          "internalType": "uint256[]",
          "name": "",
          "type": "uint256[]"
        },
        {
          "internalType": "string[]",
          "name": "",
          "type": "string[]"
        },
        {
          "internalType": "string[]",
          "name": "",
          "type": "string[]"
        }
      ],
      "stateMutability": "view",
      "type": "function",
      "constant": true
    },
    {
      "inputs": [
        {
          "internalType": "uint256",
          "name": "qid",
          "type": "uint256"
        },
        {
          "internalType": "string",
          "name": "answer",
          "type": "string"
        }
      ],
      "name": "addAnswer",
      "outputs": [],
      "stateMutability": "nonpayable",
      "type": "function"
    },
    {
      "inputs": [
        {
          "internalType": "uint256",
          "name": "dept",
          "type": "uint256"
        },
        {
          "internalType": "address",
          "name": "sender",
          "type": "address"
        },
        {
          "internalType": "address",
          "name": "receiver",
          "type": "address"
        },
        {
          "internalType": "uint256",
          "name": "amount",
          "type": "uint256"
        }
      ],
      "name": "createfund",
      "outputs": [],
      "stateMutability": "nonpayable",
      "type": "function"
    },
    {
      "inputs": [],
      "name": "viewfunds",
      "outputs": [
        {
          "internalType": "address[]",
          "name": "",
          "type": "address[]"
        },
        {
          "internalType": "address[]",
          "name": "",
          "type": "address[]"
        },
        {
          "internalType": "uint256[]",
          "name": "",
          "type": "uint256[]"
        }
      ],
      "stateMutability": "view",
      "type": "function",
      "constant": true
    },
    {
      "inputs": [],
      "name": "viewAllocatedFunds",
      "outputs": [
        {
          "internalType": "uint256[10]",
          "name": "",
          "type": "uint256[10]"
        }
      ],
      "stateMutability": "view",
      "type": "function",
      "constant": true
    },
    {
      "inputs": [
        {
          "internalType": "uint256",
          "name": "dept",
          "type": "uint256"
        },
        {
          "internalType": "uint256",
          "name": "newfund",
          "type": "uint256"
        }
      ],
      "name": "addFund",
      "outputs": [],
      "stateMutability": "nonpayable",
      "type": "function"
    }
  ],
  "bytecode": "0x60806040526000600355604051806101400160405280620f424062ffffff168152602001620f424062ffffff168152602001620f424062ffffff168152602001620f424062ffffff168152602001620f424062ffffff168152602001620f424062ffffff168152602001620f424062ffffff168152602001620f424062ffffff168152602001620f424062ffffff168152602001620f424062ffffff16815250600890600a6100af9291906100c2565b503480156100bc57600080fd5b50610126565b82600a81019282156100f8579160200282015b828111156100f7578251829062ffffff169055916020019190600101906100d5565b5b5090506101059190610109565b5090565b5b8082111561012257600081600090555060010161010a565b5090565b61138a806101356000396000f3fe608060405234801561001057600080fd5b506004361061007d5760003560e01c80639e5d88671161005b5780639e5d8867146100dc578063a59d2357146100fd578063bbb00a5714610119578063d8ba83d5146101355761007d565b80633d696e4f1461008257806358a78199146100a05780637491995a146100c0575b600080fd5b61008a610151565b6040516100979190610922565b60405180910390f35b6100a861019c565b6040516100b793929190610ac5565b60405180910390f35b6100da60048036038101906100d59190610c97565b610314565b005b6100e461038e565b6040516100f49493929190610e34565b60405180910390f35b61011760048036038101906101129190610ec1565b6105f4565b005b610133600480360381019061012e9190610c97565b610732565b005b61014f600480360381019061014a9190610f28565b61081a565b005b61015961084a565b6008600a806020026040519081016040528092919082600a8015610192576020028201915b81548152602001906001019080831161017e575b5050505050905090565b60608060606000600160028280548060200260200160405190810160405280929190818152602001828054801561022857602002820191906000526020600020905b8160009054906101000a900473ffffffffffffffffffffffffffffffffffffffff1673ffffffffffffffffffffffffffffffffffffffff16815260200190600101908083116101de575b50505050509250818054806020026020016040519081016040528092919081815260200182805480156102b057602002820191906000526020600020905b8160009054906101000a900473ffffffffffffffffffffffffffffffffffffffff1673ffffffffffffffffffffffffffffffffffffffff1681526020019060010190808311610266575b505050505091508080548060200260200160405190810160405280929190818152602001828054801561030257602002820191906000526020600020905b8154815260200190600101908083116102ee575b50505050509050925092509250909192565b60005b600480549050811015610389576004818154811061033857610337610f68565b5b9060005260206000200154830361037657816007828154811061035e5761035d610f68565b5b90600052602060002001908161037491906111a3565b505b8080610381906112a4565b915050610317565b505050565b6060806060806004600560066007838054806020026020016040519081016040528092919081815260200182805480156103e757602002820191906000526020600020905b8154815260200190600101908083116103d3575b505050505093508280548060200260200160405190810160405280929190818152602001828054801561043957602002820191906000526020600020905b815481526020019060010190808311610425575b5050505050925081805480602002602001604051908101604052809291908181526020016000905b8282101561050d57838290600052602060002001805461048090610fc6565b80601f01602080910402602001604051908101604052809291908181526020018280546104ac90610fc6565b80156104f95780601f106104ce576101008083540402835291602001916104f9565b820191906000526020600020905b8154815290600101906020018083116104dc57829003601f168201915b505050505081526020019060010190610461565b50505050915080805480602002602001604051908101604052809291908181526020016000905b828210156105e057838290600052602060002001805461055390610fc6565b80601f016020809104026020016040519081016040528092919081815260200182805461057f90610fc6565b80156105cc5780601f106105a1576101008083540402835291602001916105cc565b820191906000526020600020905b8154815290600101906020018083116105af57829003601f168201915b505050505081526020019060010190610534565b505050509050935093509350935090919293565b80600885600a811061060957610608610f68565b5b01541061072c576000839080600181540180825580915050600190039060005260206000200160009091909190916101000a81548173ffffffffffffffffffffffffffffffffffffffff021916908373ffffffffffffffffffffffffffffffffffffffff1602179055506001829080600181540180825580915050600190039060005260206000200160009091909190916101000a81548173ffffffffffffffffffffffffffffffffffffffff021916908373ffffffffffffffffffffffffffffffffffffffff16021790555080600885600a81106106eb576106ea610f68565b5b0160008282546106fb91906112ec565b9250508190555060028190806001815401808255809150506001900390600052602060002001600090919091909150555b50505050565b6001600360008282546107459190611320565b925050819055506004600354908060018154018082558091505060019003906000526020600020016000909190919091505560058290806001815401808255809150506001900390600052602060002001600090919091909150556006819080600181540180825580915050600190039060005260206000200160009091909190915090816107d491906111a3565b5060078060018154018082558091505060019003906000526020600020016000604051806020016040528060008152509091909150908161081591906111a3565b505050565b80600883600a811061082f5761082e610f68565b5b01600082825461083f9190611320565b925050819055505050565b604051806101400160405280600a90602082028036833780820191505090505090565b6000600a9050919050565b600081905092915050565b6000819050919050565b6000819050919050565b6108a08161088d565b82525050565b60006108b28383610897565b60208301905092915050565b6000602082019050919050565b6108d48161086d565b6108de8184610878565b92506108e982610883565b8060005b8381101561091a57815161090187826108a6565b965061090c836108be565b9250506001810190506108ed565b505050505050565b60006101408201905061093860008301846108cb565b92915050565b600081519050919050565b600082825260208201905092915050565b6000819050602082019050919050565b600073ffffffffffffffffffffffffffffffffffffffff82169050919050565b60006109958261096a565b9050919050565b6109a58161098a565b82525050565b60006109b7838361099c565b60208301905092915050565b6000602082019050919050565b60006109db8261093e565b6109e58185610949565b93506109f08361095a565b8060005b83811015610a21578151610a0888826109ab565b9750610a13836109c3565b9250506001810190506109f4565b5085935050505092915050565b600081519050919050565b600082825260208201905092915050565b6000819050602082019050919050565b6000602082019050919050565b6000610a7282610a2e565b610a7c8185610a39565b9350610a8783610a4a565b8060005b83811015610ab8578151610a9f88826108a6565b9750610aaa83610a5a565b925050600181019050610a8b565b5085935050505092915050565b60006060820190508181036000830152610adf81866109d0565b90508181036020830152610af381856109d0565b90508181036040830152610b078184610a67565b9050949350505050565b6000604051905090565b600080fd5b600080fd5b610b2e8161088d565b8114610b3957600080fd5b50565b600081359050610b4b81610b25565b92915050565b600080fd5b600080fd5b6000601f19601f8301169050919050565b7f4e487b7100000000000000000000000000000000000000000000000000000000600052604160045260246000fd5b610ba482610b5b565b810181811067ffffffffffffffff82111715610bc357610bc2610b6c565b5b80604052505050565b6000610bd6610b11565b9050610be28282610b9b565b919050565b600067ffffffffffffffff821115610c0257610c01610b6c565b5b610c0b82610b5b565b9050602081019050919050565b82818337600083830152505050565b6000610c3a610c3584610be7565b610bcc565b905082815260208101848484011115610c5657610c55610b56565b5b610c61848285610c18565b509392505050565b600082601f830112610c7e57610c7d610b51565b5b8135610c8e848260208601610c27565b91505092915050565b60008060408385031215610cae57610cad610b1b565b5b6000610cbc85828601610b3c565b925050602083013567ffffffffffffffff811115610cdd57610cdc610b20565b5b610ce985828601610c69565b9150509250929050565b600081519050919050565b600082825260208201905092915050565b6000819050602082019050919050565b600081519050919050565b600082825260208201905092915050565b60005b83811015610d59578082015181840152602081019050610d3e565b60008484015250505050565b6000610d7082610d1f565b610d7a8185610d2a565b9350610d8a818560208601610d3b565b610d9381610b5b565b840191505092915050565b6000610daa8383610d65565b905092915050565b6000602082019050919050565b6000610dca82610cf3565b610dd48185610cfe565b935083602082028501610de685610d0f565b8060005b85811015610e225784840389528151610e038582610d9e565b9450610e0e83610db2565b925060208a01995050600181019050610dea565b50829750879550505050505092915050565b60006080820190508181036000830152610e4e8187610a67565b90508181036020830152610e628186610a67565b90508181036040830152610e768185610dbf565b90508181036060830152610e8a8184610dbf565b905095945050505050565b610e9e8161098a565b8114610ea957600080fd5b50565b600081359050610ebb81610e95565b92915050565b60008060008060808587031215610edb57610eda610b1b565b5b6000610ee987828801610b3c565b9450506020610efa87828801610eac565b9350506040610f0b87828801610eac565b9250506060610f1c87828801610b3c565b91505092959194509250565b60008060408385031215610f3f57610f3e610b1b565b5b6000610f4d85828601610b3c565b9250506020610f5e85828601610b3c565b9150509250929050565b7f4e487b7100000000000000000000000000000000000000000000000000000000600052603260045260246000fd5b7f4e487b7100000000000000000000000000000000000000000000000000000000600052602260045260246000fd5b60006002820490506001821680610fde57607f821691505b602082108103610ff157610ff0610f97565b5b50919050565b60008190508160005260206000209050919050565b60006020601f8301049050919050565b600082821b905092915050565b6000600883026110597fffffffffffffffffffffffffffffffffffffffffffffffffffffffffffffffff8261101c565b611063868361101c565b95508019841693508086168417925050509392505050565b6000819050919050565b60006110a061109b6110968461088d565b61107b565b61088d565b9050919050565b6000819050919050565b6110ba83611085565b6110ce6110c6826110a7565b848454611029565b825550505050565b600090565b6110e36110d6565b6110ee8184846110b1565b505050565b5b81811015611112576111076000826110db565b6001810190506110f4565b5050565b601f8211156111575761112881610ff7565b6111318461100c565b81016020851015611140578190505b61115461114c8561100c565b8301826110f3565b50505b505050565b600082821c905092915050565b600061117a6000198460080261115c565b1980831691505092915050565b60006111938383611169565b9150826002028217905092915050565b6111ac82610d1f565b67ffffffffffffffff8111156111c5576111c4610b6c565b5b6111cf8254610fc6565b6111da828285611116565b600060209050601f83116001811461120d57600084156111fb578287015190505b6112058582611187565b86555061126d565b601f19841661121b86610ff7565b60005b828110156112435784890151825560018201915060208501945060208101905061121e565b86831015611260578489015161125c601f891682611169565b8355505b6001600288020188555050505b505050505050565b7f4e487b7100000000000000000000000000000000000000000000000000000000600052601160045260246000fd5b60006112af8261088d565b91507fffffffffffffffffffffffffffffffffffffffffffffffffffffffffffffffff82036112e1576112e0611275565b5b600182019050919050565b60006112f78261088d565b91506113028361088d565b925082820390508181111561131a57611319611275565b5b92915050565b600061132b8261088d565b91506113368361088d565b925082820190508082111561134e5761134d611275565b5b9291505056fea26469706673582212206c02399ba7a46ecb7ea64bfe6f510a798c89730a4ddba4fe0d8099068138b80764736f6c63430008110033",
  "immutableReferences": {},
  "source": "// SPDX-License-Identifier: MIT\r\npragma solidity >=0.4.22 <0.9.0;\r\n\r\ncontract funds {\r\n\r\n  address[] _senders;\r\n  address[] _receivers;\r\n  uint[] _amounts;\r\n  uint count=0;\r\n\r\n  uint[] _snos;\r\n  uint[] _ids;\r\n  string[] _questions;\r\n  string[] _answers;\r\n\r\n  uint[10] _depts=[1000000,1000000,1000000,1000000,1000000,1000000,1000000,1000000,1000000,1000000];\r\n  // Finance,Expenditure,Revenue,Education,Health,Power,Investment,Public Enterprise,Technology,Transportation;\r\n\r\n  function addQuestion(uint id,string memory question) public {\r\n    count+=1;\r\n    _snos.push(count);\r\n    _ids.push(id);\r\n    _questions.push(question);\r\n    _answers.push(\"\");\r\n  }\r\n\r\n  function viewQuestions() public view returns(uint[] memory,uint[] memory,string[] memory,string[] memory) {\r\n    return(_snos,_ids,_questions,_answers);\r\n  }\r\n\r\n  function addAnswer(uint qid,string memory answer) public {\r\n    uint i;\r\n    for(i=0;i<_snos.length;i++){\r\n      if(qid==_snos[i]) {\r\n        _answers[i]=answer;\r\n      }\r\n    }\r\n  }\r\n\r\n  function createfund(uint dept,address sender,address receiver,uint amount) public{\r\n\r\n    if(_depts[dept]>=amount) {\r\n      _senders.push(sender);\r\n      _receivers.push(receiver);\r\n      _depts[dept]-=amount;\r\n      _amounts.push(amount);\r\n    }\r\n  }\r\n\r\n  function viewfunds() public view returns(address[] memory,address[] memory,uint[] memory){\r\n    return(_senders,_receivers,_amounts);\r\n  }\r\n\r\n  function viewAllocatedFunds() public view returns(uint[10] memory) {\r\n    return(_depts);\r\n  }\r\n\r\n  function addFund(uint dept,uint newfund) public {\r\n    _depts[dept]+=newfund;\r\n  }\r\n\r\n}\r\n",
  "sourcePath": "C:\\Users\\91901\\Desktop\\Government fund allocation and Tracking system over blockchain\\contracts\\funds.sol",
  "compiler": {
    "name": "solc",
    "version": "0.8.17+commit.8df45f5f.Emscripten.clang"
  },
  "schemaVersion": "3.4.11",
  "updatedAt": "2023-02-18T15:31:43.462Z",
  "networkType": "ethereum",
  "devdoc": {
    "kind": "dev",
    "methods": {},
    "version": 1
  },
  "userdoc": {
    "kind": "user",
    "methods": {},
    "version": 1
  }
}